:020000040800F2
:1000000000000220510D0008AB020008AD020008FC
:10001000AF020008B1020008B302000800000000AF
:10002000000000000000000000000000B502000811
:10003000B702000800000000B9020008BB02000877
:10004000A10D0008A10D0008A10D0008A10D0008D8
:10005000A10D0008A10D0008A10D0008A10D0008C8
:10006000A10D0008A10D0008A10D0008A10D0008B8
:10007000A10D0008A10D0008A10D0008A10D0008A8
:10008000A10D0008A10D0008A10D0008A10D000898
:10009000A10D0008A10D0008A10D0008A10D000888
:1000A000A10D0008A10D0008A10D0008A10D000878
:1000B000A10D0008A10D0008A10D0008A10D000868
:1000C000A10D0008A10D0008A10D0008A10D000858
:1000D000A10D0008A10D0008A10D0008A10D000848
:1000E000A10D0008A10D0008A10D0008A10D000838
:1000F000A10D0008A10D0008A10D0008A10D000828
:10010000A10D0008A10D0008A10D0008A10D000817
:10011000A10D0008A10D0008A10D0008A10D000807
:10012000A10D0008A10D0008A10D0008A10D0008F7
:10013000A10D0008A10D0008A10D0008A10D0008E7
:10014000A10D0008A10D0008A10D0008A10D0008D7
:10015000A10D0008A10D0008A10D0008A10D0008C7
:10016000A10D0008A10D0008A10D0008A10D0008B7
:10017000A10D0008A10D0008A10D0008A10D0008A7
:10018000A10D0008A10D0008A10D0008A10D000897
:10019000A10D000800000000A10D0008A10D00083D
:1001A000A10D0008A10D0008A10D0008A10D000877
:1001B000A10D0008A10D0008A10D0008A10D000867
:1001C000A10D0008A10D0008A10D0008A10D000857
:0801D000A10D0008A10D0008BB
:1001D80010B5054C237833B9044B13B10448AFF379
:1001E80000800123237010BD0C00002000000000D7
:1001F800FC0D000808B5034B1BB103490348AFF3D6
:10020800008008BD0000000010000020FC0D000860
:1002180082B0064BDA6C42F00102DA64DB6C03F060
:1002280001030193019B02B0704700BF0010024018
:1002380072B6FEE710B594B03822002106A800F087
:10024800ACFD0024019402940394049405944FF4A3
:10025800007000F04FF8022306934FF4807309935F
:1002680040230A930D9406A800F048F968B90F23B3
:10027800019301230293002103910491059101A8A0
:1002880000F0F2FB18B914B010BDFFF7D1FFFFF76B
:10029800CFFF08B500F0E4F8FFF7CCFFFFF7B8FF91
:1002A800FEE7FEE7FEE7FEE7FEE7FEE7704770477A
:1002B800704708B500F0E4F808BD000000B583B049
:1002C8000B4B1A6E42F001021A661A6E02F0010216
:1002D8000092009A9A6D42F080529A659B6D03F0E5
:1002E80080530193019B00F08BF803B05DF804FB89
:1002F80000100240002836D13E4B1B6803F4C0634F
:10030800B3F5806F08D03B4AD2F8803023F480736D
:10031800C2F8803000207047364AD2F8803023F483
:100328008073C2F88030136823F4C06343F4007309
:100338001360314B1B68322202FB03F32F4AA2FBE6
:1003480003239B0C013300E0013B2A4A526912F453
:10035800806F01D0002BF7D1264B5B6913F4806FB7
:1003680044D100207047B0F5007F08D0214A1368B7
:1003780023F4C06343F480631360002070471D4B6F
:100388001B6803F4C063B3F5806F08D0194AD2F82C
:10039800803043F48073C2F8803000207047154ADB
:1003A800D2F8803043F48073C2F88030136823F4A5
:1003B800C06343F4007313600F4B1B68322202FBC7
:1003C80003F30E4AA2FB03239B0C013300E0013B1D
:1003D800084A526912F4806F01D0002BF7D1054BFF
:1003E8005B6913F4806F03D10020704703207047C6
:1003F80003207047007000400800002083DE1B4384
:10040800024A936843F48043936070470070004049
:10041800104B1B680BB90120704710B504464FF408
:100428007A70B0FBF3F30C4A1068B0FBF3F000F0FD
:100438006DFC68B90F2C01D901200AE00022214681
:100448004FF0FF3000F052FC044B1C60002000E02D
:10045800012010BD0000002008000020040000203A
:1004680010B5032000F030FC0F20FFF7D1FF10B1CA
:100478000124204610BD0446FFF720FFF9E70000DD
:10048800034A1368034909680B441360704700BFA7
:100498002800002000000020014B1868704700BFAA
:1004A80028000020124BDA6802F00302DB68C3F36D
:1004B80003130133032A11D00E48B0FBF3F00C4BA1
:1004C800DB68C3F3062303FB00F0094BDB68C3F3C7
:1004D800416301335B00B0FBF3F070470648B0FBA3
:1004E800F3F0034BDB68C3F3062303FB00F0ECE7F0
:1004F800001002400024F40000127A00002800F0E6
:100508004F8270B582B00446036813F0010F37D0EC
:10051800A44A936803F00C03D26802F003020C2B80
:1005280023D0082B23D06368B3F5803F4ED0B3F5B2
:10053800A02F51D09B4B1A6822F480321A601A6897
:1005480022F480221A606368002B52D0FFF7A4FFC0
:100558000546944B1B6813F4003F11D1FFF79CFF2D
:10056800401B6428F5D9032023E2032AD9D18D4BF7
:100578001B6813F4003F03D06368002B00F012825D
:10058800236813F0020F5DD0864A936803F00C03CA
:10059800D26802F003020C2B3AD0042B3AD0E3685D
:1005A800002B75D07F4A136843F480731360FFF7FC
:1005B80073FF05467B4B1B6813F4806F5FD1FFF711
:1005C8006BFF401B0228F5D90320F2E1754A136836
:1005D80043F480331360B6E703F18043A3F53C335B
:1005E8001A6842F480221A601A6842F480321A604B
:1005F800A9E7FFF751FF05466A4B1B6813F4003F54
:10060800BED0FFF749FF401B6428F5D90320D0E18D
:10061800022AC2D1634B1B6813F4806F03D0E368CE
:10062800002B00F0C1815F4A536823F0FE43216923
:1006380043EA016353605C4B1868FFF7E9FE002842
:1006480040F0B481236813F0080F4CD063699BB362
:10065800544AD2F8943043F00103C2F89430FFF7BB
:100668001BFF05464F4BD3F8943013F0020F3AD1D5
:10067800FFF712FF401B0228F4D9032099E1494AE9
:10068800536823F0FE43216943EA01635360D9E7C5
:10069800444A136823F480731360FFF7FDFE054690
:1006A800404B1B6813F4806FCCD0FFF7F5FE401B5E
:1006B8000228F5D903207CE13A4AD2F8943023F095
:1006C8000103C2F89430FFF7E7FE0546354BD3F82F
:1006D800943013F0020F06D0FFF7DEFE401B02280D
:1006E800F4D9032065E1236813F0040F00F081803A
:1006F8002C4B9B6D13F0805F36D12A4B9A6D42F0DC
:1007080080529A659B6D03F080530193019B0125EC
:10071800264B1B6813F4807F28D0A368012B39D09F
:10072800052B45D01F4BD3F8902022F00102C3F8C7
:100738009020D3F8902022F00402C3F89020A368F8
:10074800002B43D0FFF7A8FE0646164BD3F890308F
:1007580013F0020F4CD1FFF79FFE801B41F2883344
:100768009842F2D9032024E10025D1E70F4A136803
:1007780043F480731360FFF78FFE06460B4B1B682C
:1007880013F4807FC9D1FFF787FE801B0228F5D9B3
:1007980003200EE1034AD2F8903043F00103C2F877
:1007A8009030CCE7001002400400002000700040A8
:1007B800884BD3F8902042F00402C3F89020D3F875
:1007C800902042F00102C3F89020B8E7FFF764FEDA
:1007D8000646804BD3F8903013F0020F08D0FFF78D
:1007E8005BFE801B41F288339842F2D90320E0E097
:1007F800E5B9236813F0200F35D0A369E3B1754A32
:10080800D2F8983043F00103C2F89830FFF744FE5D
:100818000546704BD3F8983013F0020F23D1FFF739
:100828003BFE401B0228F4D90320C2E0694A936DBD
:1008380023F080539365DCE7664AD2F8983023F0BA
:100848000103C2F89830FFF727FE0546614BD3F83D
:10085800983013F0020F06D0FFF71EFE401B022847
:10086800F4D90320A5E0E369002B00F0A180594AE0
:10087800926802F00C020C2A64D0022B13D0554A5D
:10088800136823F080731360FFF706FE0446514B8C
:100898001B6813F0007F4ED0FFF7FEFD001B0228F7
:1008A800F5D9032085E04B4A136823F08073136061
:1008B800FFF7F2FD0546474B1B6813F0007F06D093
:1008C800FFF7EAFD401B0228F5D9032071E0414AF1
:1008D800D36841491940236A606A013843EA001322
:1008E800A06A43EA0023206B4008013843EA4053DA
:1008F800606B4008013843EA4063E06A43EAC0633A
:100908001943D160136843F080731360D36843F0D0
:100918008073D360FFF7C0FD04462E4B1B6813F0AD
:10092800007F06D1FFF7B8FD001B0228F5D9032088
:100938003FE000203DE0274AD168284B0B40D360B8
:10094800002036E0012B36D0224BDB6803F0030190
:10095800226A914231D103F0F002616A0139B2EBA7
:10096800011F2CD103F4FE42A16AB2EB012F28D15A
:1009780003F07842E16AB2EBC16F24D103F4C001FD
:10098800226B5208013AB1EB425F1ED103F0C063FB
:10099800626B5208013AB3EB426F18D1002008E0AD
:1009A80001207047012004E0012002E0012000E05E
:1009B800002002B070BD0120FBE70120F9E701200B
:1009C800F7E70120F5E70120F3E70120F1E701202F
:1009D800EFE700BF001002400C809F01FCFFEEFE15
:1009E8001E4B9B6803F00C03042B33D01B4B9B68F6
:1009F80003F00C03082B2FD0184B9B6803F00C0353
:100A08000C2B01D000207047144BDA6802F0030267
:100A1800DB68C3F303130133032A11D01048B0FB7A
:100A2800F3F00E4BDB68C3F3062303FB00F00B4B1C
:100A3800DB68C3F3416301335B00B0FBF3F070473D
:100A48000848B0FBF3F0054BDB68C3F3062303FB50
:100A580000F0ECE702487047024870470010024077
:100A68000024F40000127A00002800F0E680F8B5AF
:100A78000C460546744B1B6803F00F038B420BD2E0
:100A8800714A136823F00F030B431360136803F0D4
:100A98000F038B4240F0D3802E6816F001065FD01A
:100AA8006B68032B2FD0022B4DD0684B1B6813F4B7
:100AB800806F00F0C680FFF793FF654B98424DD9D1
:100AC800624A936823F0F00343F080039360802622
:100AD8005E4A936823F0030369680B439360FFF74A
:100AE800DBFC0746594B9B6803F00C036A68B3EBC1
:100AF800820F35D0FFF7D0FCC01B41F288339842F3
:100B0800F0D9032078E0514B1B6813F0007F01D126
:100B1800012071E0FFF7C6FC4D4B98421AD94B4BA8
:100B28009B6813F0F00F05D02E6816F00206CFD0A0
:100B3800AB688BB9454A936823F0F00343F0800310
:100B480093608026C4E7414B1B6813F4003FB2D181
:100B5800012051E00026BBE70026B9E70026B7E7E9
:100B68002B6813F0020F48D013F0040F04D0374A53
:100B7800936843F4E06393602B6813F0080F06D082
:100B8800324A936823F47C5343F4E06393602F4A1A
:100B9800936823F0F003A9680B4393602A4B1B6802
:100BA80003F00F03A34230D82B6813F0040F06D0CC
:100BB800264A936823F4E063E9680B4393602B6843
:100BC80013F0080F07D0214A936823F4605329696A
:100BD80043EAC1039360FFF703FF1C4B9B68C3F311
:100BE80003131C4AD35C03F01F03D8401A4B186048
:100BF8001A4B1868FFF70CFCF8BD802ECED1134AAB
:100C0800936823F0F0039360C8E70F4A136823F052
:100C18000F0323431360FFF73FFC06460A4B1B688C
:100C280003F00F03A342BFD0FFF736FC801B41F24D
:100C380088339842F2D90320DEE70120704701206B
:100C4800DAE70120D8E700BF002002400010024088
:100C580000B4C404140E000808000020040000209A
:100C6800002808DB0901C9B200F1604000F56140C5
:100C780080F80013704700F00F000901C9B2014B5A
:100C88001954704714ED00E000B500F00700C0F1FA
:100C9800070CBCF1040F28BF4FF0040C031D062BF2
:100CA8000FD9C31E4FF0FF3E0EFA0CF021EA0001E7
:100CB80099400EFA03FE22EA0E0241EA02005DF8AC
:100CC80004FB0023EEE70000074AD36823F4E0633F
:100CD8001B041B0C000200F4E060034343F0BF63F5
:100CE80043F40033D360704700ED00E010B50446CC
:100CF800054BD868C0F30220FFF7C6FF014620461F
:100D0800FFF7AEFF10BD00BF00ED00E00138B0F105
:100D1800807F0BD24FF0E0235861054AF02182F81A
:100D280023100020986107221A617047012070473C
:100D380000ED00E0034AD2F8883043F47003C2F8AB
:100D48008830704700ED00E00D488546FFF7F2FF58
:100D58000C480D490D4A002302E0D458C45004330E
:100D6800C4188C42F9D30A4A0A4C002301E01360E4
:100D78000432A242FBD300F019F8FFF78AFAFEE723
:100D880000000220000000200C0000202C0E0008AB
:100D98000C0000202C000020FEE70244034693428A
:100DA80000D1704703F8011BF9E7000070B50D4D3D
:100DB8000D4C641BA4100026A64209D10B4D0C4C07
:100DC80000F018F8641BA4100026A64205D170BDD7
:100DD80055F8043B98470136EEE755F8043B984729
:100DE8000136F2E7240E0008240E0008240E00083D
:100DF800280E0008F8B500BFF8BC08BC9E4670472E
:0C0E0800F8B500BFF8BC08BC9E4670475F
:100E140000000000000000000102030406070809A6
:040E2400FD010008C4
:040E2800D9010008E4
:0C0E2C0001000000100000000024F40091
:0400000508000D5191
:00000001FF
